:020000040000FA
:100000000C9463000C948B000C948B000C94280EC1
:100010000C94280E0C94280E0C948B000C948B00DE
:100020000C948B000C948B000C94A70D0C948B00FB
:100030000C948B000C94580D0C948B000C948B003A
:100040000C94B60C0C948B000C94260D0C94000DA3
:100050000C948B000C948B000C948B000C948B00F4
:100060000C948B000C948B000000000024002700EF
:100070002A0000000008000201000003040700003D
:1000800000000000000000000000230026002900FE
:1000900000000000250028002B00040404040404D0
:1000A0000404020202020202030303030303010227
:1000B00004081020408001020408102001020408F6
:1000C0001020A00EE11111241FBECFEFD8E0DEBF3B
:1000D000CDBF25E0A8E9B1E001C01D92AB39B20760
:1000E000E1F711E0A0E0B1E0EAE1F9E202C0059039
:1000F0000D92A839B107D9F710E0C2E6D0E004C0EC
:100100002197FE010E945C12C136D107C9F70E94F7
:100110008A0F0C9480140C94000090E0FC01EE58BF
:10012000FF4F2491FC01E255FF4F3491FC01E6564C
:10013000FF4FE491EE23C9F0222339F0233001F17F
:10014000A8F4213019F1223029F1F0E0EE0FFF1F61
:10015000E057FF4FA591B4918FB7F894EC916111DE
:1001600026C030953E233C938FBF08952730A9F0D9
:100170002830C9F0243049F7809180008F7D03C07A
:10018000809180008F7780938000DFCF84B58F7758
:1001900084BDDBCF84B58F7DFBCF8091B0008F779E
:1001A0008093B000D2CF8091B0008F7DF9CF3E2BED
:1001B000DACFCF93DF9390E0FC01E255FF4F24911B
:1001C00086569F4FFC0184918823D1F090E0880FE0
:1001D000991FFC01E859FF4FA591B491FC01E0572C
:1001E000FF4FC591D49161110EC09FB7F8948C91C7
:1001F000E22FE0958E238C932881E223E8839FBF32
:10020000DF91CF9108958FB7F894EC91E22BEC93A6
:100210008FBFF6CF2FB7F89460917104709172047C
:1002200080917304909174042FBF0895AF92BF9290
:10023000CF92DF92EF92FF920F931F93CF93DF93B2
:100240006C017B018B01040F151FEB015E01AE18E1
:10025000BF08C017D10759F06991D601ED91FC9103
:100260000190F081E02DC6010995892B79F7C50130
:10027000DF91CF911F910F91FF90EF90DF90CF9082
:10028000BF90AF900895FC01538D448D252F30E031
:10029000842F90E0821B930B541710F0CF96089593
:1002A00001970895FC01918D828D981761F0A28DC0
:1002B000AE0FBF2FB11D5D968C91928D9F5F9F7386
:1002C000928F90E008958FEF9FEF0895FC01918D3C
:1002D000828D981731F0828DE80FF11D858D90E0A9
:1002E00008958FEF9FEF0895FC01918D228D892F46
:1002F00090E0805C9F4F821B91098F73992708952E
:1003000085E794E00E94740121E0892B09F420E044
:10031000822F089580E090E0892B29F00E948001CF
:1003200081110C9400000895FC01A48DA80FB92F31
:10033000B11DA35ABF4F2C91848D90E001968F730D
:100340009927848FA689B7892C93A089B1898C912C
:10035000837080648C93938D848D981306C002887B
:10036000F389E02D80818F7D80830895EF92FF9245
:100370000F931F93CF93DF93EC0181E0888F9B8DC8
:100380008C8D98131AC0E889F989808185FF15C082
:100390009FB7F894EE89FF896083E889F9898081A5
:1003A0008370806480839FBF81E090E0DF91CF9174
:1003B0001F910F91FF90EF900895F62E0B8D10E096
:1003C0000F5F1F4F0F731127E02E8C8D8E110CC005
:1003D0000FB607FCFACFE889F989808185FFF5CF50
:1003E000CE010E949401F1CFEB8DEC0FFD2FF11D9A
:1003F000E35AFF4FF0829FB7F8940B8FEA89FB898D
:1004000080818062CFCFCF93DF93EC01888D8823EA
:10041000B9F0AA89BB89E889F9898C9185FD03C067
:10042000808186FD0DC00FB607FCF7CF8C9185FF4C
:10043000F2CF808185FFEDCFCE010E949401E9CFFC
:10044000DF91CF9108952091D901211109C021E0B8
:100450002093D90130912D0520912E053CBD2DBD55
:1004600060E0FC0184810C948D0061E0FC018481DA
:100470000E948D008091D90181111092D9010895B7
:100480008EBD00000DB407FEFDCF8EB508958FEF31
:100490000C9440020F931F93CF93DF93EC010E94C3
:1004A0000A018B010E9447028F3F69F00E940A01F6
:1004B000601B710B6C177D07A8F380E0DF91CF9173
:1004C0001F910F91089581E0F9CFCF92DF92EF92C3
:1004D000FF920F931F93CF93DF93EC01162F6901C7
:1004E0007A018E81882389F08F8198859C012F5F06
:1004F0003F4F38872F838230924018F40E94470282
:10050000F3CFCE010E9435021E82CE010E9423024B
:100510008CE291E00E944A02812F80640E94400296
:1005200008E110E0D701C601002E04C0B695A795DA
:10053000979587950A94D2F70E94400208501109B6
:10054000083F8FEF180771F78FEF0E94400210E00D
:100550000E9447028A8787FF04C01F3F11F01F5F78
:10056000F7CFDF91CF911F910F91FF90EF90DF9028
:10057000CF900895AF92BF92CF92DF92EF92FF9209
:100580000F931F93CF93DF93EC016901C801820F92
:10059000931F8130924050F58E81882379F08881B5
:1005A0009981AA81BB8184179507A607B70731F403
:1005B0008F819885C816D90608F042C048835983B0
:1005C0006A837B838B85833039F089E0440F551F24
:1005D000661F771F8A95D1F79A01AB0161E1CE01C1
:1005E0000E946502882389F083E08D83CE010E94FA
:1005F000350280E0DF91CF911F910F91FF90EF9036
:10060000DF90CF90BF90AF9008950E940A015B01E8
:100610000E9447028A878F3F69F40E940A016A1983
:100620007B096D327140A0F38FE08D83CE010E9473
:100630003502DCCF8E3F89F418861F8281E08E83DD
:100640008F8198858C159D0550F40E9447028F81FB
:100650009885019698878F83F3CF8DE0E6CF670169
:10066000E00EF11E0E944702F60181936F01EE1524
:10067000FF05C1F78F819885080F191F18870F8311
:100680008985882319F001151240A0F08E818823F6
:1006900089F08F8198859C012F5F3F4F38872F838A
:1006A0008230924018F40E944702F3CFCE010E949C
:1006B00035021E8281E09ECFCF92DF92EF92FF92B1
:1006C0000F93CF93DF93EC01690182E1411551054E
:1006D0006105710599F08B85833039F089E0440F0D
:1006E000551F661F771F8A95D1F79A01AB0168E104
:1006F000CE010E946502882319F084E08D832DC00D
:100700008EEF0E94400276018EEFD81AF701819198
:100710007F010E944002EC14FD04C1F78FEF0E949C
:1007200040028FEF0E9440020E9447028A878F7129
:10073000853071F4011116C0CE010E94350281E0AE
:10074000DF91CF910F91FF90EF90DF90CF900895C0
:1007500081E18D83CE010E943502CE010E943502D7
:1007600080E0EECF88E592E00E944A02811102C04B
:1007700085E1C4CF20E030E0A9016DE0CE010E9408
:100780006502882311F084E1B9CF0E9447028111EC
:10079000FACFD2CF0F934091DB015091DC016091F1
:1007A000DD017091DE01411551056105710589F08A
:1007B000082F2FED31E090E080E00E945C03882359
:1007C00049F01092DB011092DC011092DD011092D1
:1007D000DE0181E00F9108950F93CF93C82F809190
:1007E000DA01811105C0C1E08C2FCF910F910895DE
:1007F000409100015091010160910201709103014B
:100800000C2F2FED31E090E080E00E945C0381111D
:1008100002C0C0E0E9CFCC2331F381E00E94CA03DB
:100820008823B9F31092DA01DFCF8F929F92AF92B3
:10083000BF92EF92FF920F931F93CF934B015C01F6
:10084000C42F8091000190910101A0910201B0910B
:10085000030188159905AA05BB0541F181E00E94B5
:10086000EC0381110BC080E0CF911F910F91FF909D
:10087000EF90BF90AF909F908F9008958FEDE82EEE
:1008800081E0F82E00E012E030E020E0B501A401A4
:1008900090E080E00E94BA02882329F38092000150
:1008A00090920101A0920201B09203014091DA01FD
:1008B0004C2B4093DA0181E0D7CF4F925F926F9239
:1008C0007F928F929F92AF92BF92CF92DF92EF92E0
:1008D000FF920F931F93CF93DF93EC0142305105AA
:1008E0006105710590F480E0DF91CF911F910F9128
:1008F000FF90EF90DF90CF90BF90AF909F908F9040
:100900007F906F905F904F90089589859A85AB8511
:10091000BC850196A11DB11D84179507A607B707D1
:1009200010F3CB88DC88ED88FE888F89803109F050
:1009300042C0BB27A72F962F852F480159012A01B6
:100940003B01C80ED91EEA1EFB1E8091000190914A
:100950000101A0910201B0910301C816D906EA066F
:10096000FB0699F58F898031C1F5B301A2015527A6
:1009700066277727440F551F41525E4FFA01918237
:1009800080828091DA0181608093DA018A898230E5
:1009900080F08D819E81AF81B8858C0D9D1DAE1D2F
:1009A000BF1D8093DB019093DC01A093DD01B09328
:1009B000DE0181E099CFDB01CA01E7E0B695A7959A
:1009C00097958795EA95D1F7B8CF40E0C701B60172
:1009D0000E9415048111C6CF86CFB301A2014F77C3
:1009E000552766277727440F551F440F551F41523F
:1009F0005E4FFA0180829182A282B382C2CF8F922F
:100A00009F92AF92BF92CF92DF92EF92FF920F939D
:100A10001F93CF93DF93FC0181859285A385B485D5
:100A20000196A11DB11D84179507A607B70770F49D
:100A300080E0DF91CF911F910F91FF90EF90DF90B9
:100A4000CF90BF90AF909F908F90089583889488A7
:100A5000A588B6888789803189F5BB27A72F962F6F
:100A6000852FE9016A017B018F01BC01CD01680D71
:100A7000791D8A1D9B1D8090000190900101A0901E
:100A80000201B090030186169706A806B90601F583
:100A9000F8018789803111F5DD24EE24FF24F60169
:100AA000EE0FFF1FE152FE4F80819181B0E0A0E088
:100AB00088839983AA83BB8381E0BBCFDB01CA0112
:100AC000C7E0B695A79597958795CA95D1F7C9CFF1
:100AD00040E00E9415048111DBCFAACFE894C7F84B
:100AE000DD24EE24FF24F601EE0FFF1FEE0FFF1FA3
:100AF000E152FE4F80819181A281B381BF70D8CF36
:100B00008F929F92AF92BF92CF92DF92EF92FF921D
:100B10000F931F93CF93DF93EC018D8181110EC052
:100B200080E0DF91CF911F910F91FF90EF90DF90C8
:100B3000CF90BF90AF909F908F9008950B891C89A4
:100B40002D893E89041715072607370748F34A0100
:100B50005B01823031F48A869B86AC86BD8681E05B
:100B6000E0CF81149104A104B10449F41E821F82D4
:100B7000188619861A861B861C861D86F0CF0A8564
:100B80001B852C853D85EB8DFC8D858590E0099638
:100B9000B901A8014150510961097109082E04C029
:100BA00076956795579547950A94D2F77501640134
:100BB000E1E0CE1AD108E108F10804C0F694E79408
:100BC000D794C7948A95D2F7C416D506E606F706D9
:100BD00020F0012B022B032B11F58F89988DA98D05
:100BE000BA8D8E839F83A887B9878E010A5F1F4FB6
:100BF000C114D104E104F10409F4ADCF4E815F8149
:100C00006885798598018B8D9C8D0E94FF0491E009
:100C1000C91AD108E108F1088111EACF81CFC41ABD
:100C2000D50AE60AF70AE1CF3F924F925F926F92A0
:100C30007F928F929F92AF92BF92CF92DF92EF926C
:100C4000FF920F931F93CF93DF93CDB7DEB72C970F
:100C50000FB6F894DEBF0FBECDBF5C01DC015B9622
:100C60008D909C905C9716964D905D906D907C90C9
:100C70001997411451046104710409F468C0BFEF6D
:100C80004B1A5B0A6B0A7B0A312CF4018185928531
:100C9000A385B4859C01AD012F5F3F4F4F4F5F4F40
:100CA00029873A874B875C87730162011D821E8208
:100CB0001F821886F40181859285A385B4852D81D4
:100CC0003E814F815885281739074A075B0708F08E
:100CD00056C089859A85AB85BC858C159D05AE056A
:100CE000BF0550F482E0C82ED12CE12CF12C92E00B
:100CF000492E512C612C712C9E012F5F3F4FB70163
:100D0000A601C4010E94FF048823C9F189819A8148
:100D1000AB81BC81892B8A2B8B2B09F126013701F2
:100D20009FEF491A590A690A790A2D813E814F813C
:100D300058852F5F3F4F4F4F5F4F2D833E834F832B
:100D400058873FEFC31AD30AE30AF30AB3CFF4017B
:100D500040805180628073803324339496CFC414D2
:100D6000D504E604F70409F70FEF1FEF2FEF3FE07C
:100D7000B701A601C4010E945D04811119C080E081
:100D80002C960FB6F894DEBF0FBECDBFDF91CF918A
:100D90001F910F91FF90EF90DF90CF90BF90AF9099
:100DA0009F908F907F906F905F904F903F900895AD
:100DB000D50116964D915D916D917C9119974115D4
:100DC00051056105710539F097018601C4010E9442
:100DD0005D048823A1F2D5011696CD92DD92ED92A5
:100DE000FC921997332051F0D701C6010196A11D3D
:100DF000B11DF40180839183A283B383F5018789B8
:100E0000908DA18DB28D892B8A2B8B2B39F4848107
:100E1000C78AD08EE18EF28E80688483F50184814A
:100E20008062848381E0ACCF2F923F924F925F9299
:100E30006F927F928F929F92AF92BF92CF92DF92EA
:100E4000EF92FF920F931F93CF93DF93EC015B011F
:100E50002A018D81811115C08FEF9FEFDF91CF9116
:100E60001F910F91FF90EF90DF90CF90BF90AF90C8
:100E70009F908F907F906F905F904F903F902F90BA
:100E800008958C8180FFE8CF0B891C892D893E89CC
:100E90004A855B856C857D85C201B0E0A0E0680174
:100EA0007901C41AD50AE60AF70AC816D906EA066D
:100EB000FB0618F42801441A550A42011E0126E0D7
:100EC000220E311C8114910409F4B1C04A855B855E
:100ED0006C857D856A0181E0D8228B8D9C8D8A018D
:100EE0009B01E9E03695279517950795EA95D1F787
:100EF000ED81E230E1F5FC01628D738D848D958D7D
:100F0000600F711F821F931F612C22E0722E6C18DC
:100F10007D088614970408F434012C8126FD04C052
:100F20006114F2E07F0671F400910001109101015B
:100F3000209102013091030106171707280739078E
:100F400009F053C040E00E941504882309F484CFBF
:100F5000C60181529E4FD5019C01260D371DFC0113
:100F60002E173F0709F45EC041914D93F9CFFC0164
:100F700074807A947022C114D10471F471100CC081
:100F8000452B462B472B39F58F89988DA98DBA8D26
:100F90008E839F83A887B987EB8DFC8D6E817F81BF
:100FA000888599856250710981099109258504C058
:100FB000660F771F881F991F2A95D2F70685178518
:100FC00020893189600F711F821F931F670D711D6A
:100FD000811D911D99CF4E815F8168857985910131
:100FE0000E94FF048111D8CF37CF7501830196018C
:100FF000AB01BC0190E080E00E94BA02882309F4B2
:101000002BCFA60CB71C8A859B85AC85BD85860D2C
:10101000971DA11DB11D8A879B87AC87BD87861848
:10102000970850CF281B390BA20EB31EECCFC2017C
:1010300015CF1F93CF93DF93FC0125812223D1F19C
:10104000162FEC01848187FF2AC066857785808909
:10105000918941E00E941504882361F1EA8980E2C8
:10106000E89FF0011124E152FE4F309719F18D8174
:10107000823040F48B899C89AD89BE89848F958F9D
:10108000A68FB78F8F89988D938F828F8F89988D38
:10109000A98DBA8DB58BA48B8C818F778C83111120
:1010A00003C08C818F7E8C83812FDF91CF911F9124
:1010B0000C94EC0380E0DF91CF911F9108951F9372
:1010C000CF93DF93EC018D81813031F090E080E0AF
:1010D000DF91CF911F9108958C8181FFF7CF82FD21
:1010E00018C090E080E00E9423020E944702182F5F
:1010F00090E080E00E9435021F3F41F78C8185FF20
:101100001BC060E0CE010E9419088C818F7D8C830A
:10111000DDCF4B895C896D897E898A859B85AC850D
:10112000BD8584179507A607B707D9F2CE010E949F
:1011300080058111D6CFCACF4091DB015091DC01EF
:101140006091DD017091DE01452B462B472B21F08C
:1011500080E00E94CA03BACF80618C832A853B85D8
:10116000317080E092E0821B930BB2CF2F923F92BE
:101170004F925F926F927F928F929F92AF92BF92A7
:10118000CF92DF92EF92FF920F931F93CF93DF9353
:1011900000D000D01F92CDB7DEB77C015B01342EAA
:1011A0005D83DC0115968C911597813009F0CCC0D8
:1011B00014962C9021FEC8C022FCB2C0C32CDD8046
:1011C00022947FE027222094B22DB1702B2ED701DC
:1011D0001A964D915D916D917C911D97C114D1042A
:1011E00009F426C15B968D919C915C97FC017480FB
:1011F0007A948A019B0169E03695279517950795A2
:101200006A95D1F770228A011170711020C0011502
:101210001105E9F416964D915D916D917C911997A8
:10122000411551056105710509F097C057968D91DB
:101230009D910D90BC91A02D0097A105B10509F0DD
:10124000AEC0C7010E941406882309F47DC080E067
:1012500092E0801B910B46018C159D0508F44C0112
:10126000D7015B964D915C915C9716968D919D91FF
:101270000D90BC91A02D0297A109B109FA01258515
:1012800004C0880F991FAA1FBB1F2A95D2F7468555
:10129000578560897189840F951FA61FB71F9C0110
:1012A000AD01270D311D411D511D29013A01811448
:1012B00032E0930609F079C080910001909101011C
:1012C000A0910201B091030184159505A605B7050B
:1012D00059F48FEF9FEFDC0180930001909301019F
:1012E000A0930201B0930301022D9501B301A20165
:1012F00090E080E00E945C03882331F19EEFB91AF0
:10130000C818D908F70182859385A485B585880D0D
:10131000991DA11DB11D82879387A487B58757CFDB
:10132000F701438954896589768982859385A485E7
:10133000B585481759076A077B0709F43FCFC701EE
:101340000E94800581113ACF81E090E0D701139689
:101350009C938E93129780E007C09E012F5F3F4FB2
:101360000E94FF04811102C090E079C089819A81B6
:10137000AB81BC81F701238D348DF901278948EFBA
:101380005FEF60E070E0203121F048EF5FEF6FEF3A
:101390007FE084179507A607B70708F052CFF7013B
:1013A00086839783A087B18752CF0115110599F5E0
:1013B000D7011A964D915D916D917C911D97539631
:1013C0008D919D910D90BC91A02D481759076A07EA
:1013D0007B0708F181E00E94EC03882309F4B4CF75
:1013E000409200015092010160920201709203014B
:1013F0008091DA0181608093DA01C80181529E4FA9
:10140000D5019C01280D391DFC012E173F0759F00D
:101410004D914193FACF41E0C301B2010E941504FE
:101420008111EBCF91CF281B390BA20EB31E68CFD1
:10143000F70183899489A589B68984179507A6073A
:10144000B70738F48481438B548B658B768B806827
:101450008483F701848183FD1AC0832D9D810F90C1
:101460000F900F900F900F90DF91CF911F910F91E0
:10147000FF90EF90DF90CF90BF90AF909F908F90B4
:101480007F906F905F904F903F902F90089561E014
:10149000C7010E941908882309F456CFDECFCF93E5
:1014A000DF931F92CDB7DEB7698341E050E0BE0104
:1014B0006F5F7F4F0E94B6080F90DF91CF91089524
:1014C0000895FC01818D928D009719F061E00C94D4
:1014D00019080895DC015996ED91FC913097B9F007
:1014E00083899489A589B6894285538564857585E4
:1014F000841B950BA60BB70B811520E89207A1055D
:10150000B10538F08FEF9FE7A0E0B0E0089590E0DC
:1015100080E00895CF93DF931F92CDB7DEB7FC0133
:10152000818D928D009779F041E050E0BE016F5FB0
:101530007F4F0E941407019731F4898190E00F904A
:10154000DF91CF9108958FEF9FEFF9CFEF92FF9248
:101550000F931F93CF93DF931F92CDB7DEB7FC019C
:10156000818D928D10E000E00097E1F07F0141E075
:1015700050E0BE016F5F7F4F0E9414070FEF1FEF17
:10158000019781F4098110E0F701818D928DFC01B2
:1015900042855385648575854150510961097109FA
:1015A0000E948005C8010F90DF91CF911F910F918C
:1015B000FF90EF900895DC0159968D919C910097D2
:1015C00039F0DC01ED91FC910480F581E02D099466
:1015D00090E080E00895CF93DF93EC01E98DFA8DE0
:1015E000309749F481E090E09B838A8390E080E02B
:1015F000DF91CF91089513821282898D9A8D0E9476
:10160000B608E98DFA8D22813381232B59F7F0CF6B
:10161000CF93DF931F92CDB7DEB76983DC01ED91E5
:10162000FC910280F381E02D41E050E0BE016F5F4C
:101630007F4F09950F90DF91CF9108952091680415
:10164000309169042817390771F4909166048091EC
:101650006704981741F0E0916604F0E0E756FE4F0A
:10166000808190E008958FEF9FEF08950895EF92A5
:10167000FF920F931F93CF93DF93DC015C96ED9065
:10168000FC905D97E114F10479F481E090E0139609
:101690009C938E93129790E080E0DF91CF911F9101
:1016A0000F91FF90EF9008955196ED91FC91529714
:1016B00050968C915097982F90950FB75E962C91DD
:1016C0005E97122F127021FD6095F89420811123EE
:1016D00019F1282B2083E7012197F1F728E0462F05
:1016E00050E0308160FF1AC0382B3083E70121972A
:1016F000F1F7BA0175956795215089F7112381F0AB
:101700008081892380830FBF5C968D919C91019786
:10171000F1F781E090E0C1CF2923DCCF3923E5CF79
:101720009081892BEFCF20916804309169042817AC
:10173000390771F4809167042091660490E0805C21
:101740009F4F821B910960E470E00E94341208955B
:1017500090E080E008952091680430916904281792
:101760003907B9F49091660480916704981789F05D
:10177000E0916604F0E0E756FE4F80812091660418
:1017800030E02F5F3F4F2F7333272093660490E0A4
:1017900008958FEF9FEF08950F931F930E940A0102
:1017A00060938005709381058093820590938305F3
:1017B00088E795E00E94AB0B97FF1DC00E940A01CD
:1017C000009180051091810520918205309183055B
:1017D000601B710B820B930B00917C0510917D05B2
:1017E00020917E0530917F0560177107820793076E
:1017F000F8F28FEF9FEF1F910F91089590E080E036
:101800000895FC0101900020E9F73197AF01481BD2
:10181000590BBC0185E794E00C941601CF93DF933C
:10182000D0E0C0E0009719F00E94010CEC018EE4BA
:1018300091E00E94010C8C0F9D1FDF91CF910895C4
:10184000CF93DF93EC0181E591E00E94010CCE0182
:10185000DF91CF910C940E0CCF93DF93EC018AE5CE
:1018600091E00E94010CCE01DF91CF910C940E0CFF
:101870000F931F93CF93DF93EC0188819981009799
:1018800059F02A813B812617370730F081E0DF913C
:10189000CF911F910F9108958B016F5F7F4F0E9431
:1018A000A313009759F0998388831B830A832C81A3
:1018B0003D81232B59F7FC011082E8CF80E0E7CF70
:1018C000EF92FF920F931F93CF93DF93EC017B0175
:1018D000888199812A813B8182179307C1F48C0109
:1018E000000F111F8017910791F08C819D811B8340
:1018F0000A83000F111FB8010E94A3139D838C83DC
:10190000B8018E819F810E94A3139F838E836A8179
:101910007B812C813D8190E080E086179707FCF465
:10192000AC01440F551FD9012E5F3F4FED91FC9143
:101930001197EF2B11F00196F0CFF7018081918183
:101940008D939C9382819381EE81FF81E40FF51F3B
:101950009183808388819981019699838883DF911F
:10196000CF911F910F91FF90EF9008951F920F92CA
:101970000FB60F9211242F933F938F939F93AF93A2
:10198000BF938091710490917204A0917304B091FF
:1019900074043091700423E0230F2D3758F501961D
:1019A000A11DB11D20937004809371049093720463
:1019B000A0937304B093740480916C0490916D04AF
:1019C000A0916E04B0916F040196A11DB11D80938A
:1019D0006C0490936D04A0936E04B0936F04BF9158
:1019E000AF919F918F913F912F910F900FBE0F90CC
:1019F0001F90189526E8230F0296A11DB11DD2CF86
:101A00001F920F920FB60F9211242F933F934F9373
:101A10005F936F937F938F939F93AF93BF93EF9356
:101A2000FF9385E794E00E949401FF91EF91BF91AD
:101A3000AF919F918F917F916F915F914F913F9166
:101A40002F910F900FBE0F901F9018951F920F921D
:101A50000FB60F9211242F938F939F93EF93FF93C1
:101A6000E0918504F09186048081E0918B04F091EF
:101A70008C0482FD1BC0908180918E048F5F8F73D8
:101A800020918F04821741F0E0918E04F0E0EB5832
:101A9000FB4F958F80938E04FF91EF919F918F91D3
:101AA0002F910F900FBE0F901F9018958081F4CF4B
:101AB0001F920F920FB60F9211242F933F934F93C3
:101AC0008F939F93EF93FF938091650421E082278A
:101AD000809365048091650481112DC08091640418
:101AE0003091630440E4849FC00111248D519C4FC8
:101AF000830F911DFC01808190E090938B00809377
:101B00008A009093890080938800809163048F5F9E
:101B10008093630480916304803468F010926304BE
:101B2000E0916404F0E0EC5FFE4F20838091640458
:101B3000822780936404FF91EF919F918F914F9141
:101B40003F912F910F900FBE0F901F9018951F92ED
:101B50000F920FB60F9211242F933F934F935F93E1
:101B60006F937F938F939F93AF93BF93CF93DF93A5
:101B7000EF93FF93E091640491E0E927F0E0EC5FDC
:101B8000FE4F80818823B1F180916404892780937E
:101B9000E20380916F008F7D80936F00789482E1E3
:101BA00095E00E946A0A2091E0033091E103C09120
:101BB0002B05D0912C052817390778F180916F00FB
:101BC0008E7D80936F00209799F08D81882381F01E
:101BD00061E0CE010E94190881111D8280912B05C0
:101BE00090912C050E941A1310922C0510922B052F
:101BF0001092DF03FF91EF91DF91CF91BF91AF91F1
:101C00009F918F917F916F915F914F913F912F9114
:101C10000F900FBE0F901F9018956091E2032097D0
:101C200059F080E4689FB00111246D517C4F40E46D
:101C300050E0CE010E941407E091E203F0E0EC5F77
:101C4000FE4F108280916F00806280936F00D2CF30
:101C50001F920F920FB60F9211242F933F934F9321
:101C60005F936F937F938F939F93AF93BF93EF9304
:101C7000FF93E0916804F0916904309749F0A685DC
:101C8000B7858585968D91FF14C09C918923A1F419
:101C9000FF91EF91BF91AF919F918F917F916F9144
:101CA0005F914F913F912F910F900FBE0F901F901A
:101CB00018959C91892361F7A389B4899C918589A2
:101CC000809589238C93868997890197F1F7608D98
:101CD000718DA685B785558538E020E0CB01019749
:101CE000F1F7822F90E095958795282F4C91452309
:101CF00009F02068315091F7868D81FD2095809103
:101D0000670490E001968F73992730916604381725
:101D100099F0A0916704B0E0A756BE4F2C93809332
:101D20006704828D938D0197F1F7A389B4898C9113
:101D30009589892B8C93ACCF868D8160868FF1CF6E
:101D4000109278041092770488EE93E0A0E0B0E05F
:101D50008093790490937A04A0937B04B0937C04DD
:101D600020E131E0309376042093750425EC30E0D7
:101D7000309382042093810424EC30E03093840477
:101D80002093830420EC30E0309386042093850474
:101D900021EC30E0309388042093870422EC30E07B
:101DA00030938A042093890426EC30E030938C042D
:101DB00020938B0410928E0410928F041092900442
:101DC0001092910410921505109214058093160537
:101DD00090931705A0931805B093190522E231E0FE
:101DE000309313052093120510922C0510922B05A9
:101DF00010921E0520E520932D0510922E051092BD
:101E00003405109235051092380510923A0542E0DB
:101E100050E060E070E040933B0550933C056093D8
:101E20003D0570933E051092520510925C0510928C
:101E30005B0524E331E030935A0520935905109255
:101E40005E0510927B0510927A0580937C05909335
:101E50007D05A0937E05B0937F0580E491E090938B
:101E600079058093780510928F0510928E05109257
:101E70009105109290051092930510929205109280
:101E8000950510929405609196056E7F6D7F609325
:101E900096056695617081E0682789E00E948D0053
:101EA00061E089E00E94D900E7EBF0E0E491E09383
:101EB0008805E3EAF0E0E491F0E0EE0FFF1FE05761
:101EC000FF4F8591949190938A058093890560E0F6
:101ED00088E00E94D9008091960581FD04C061E0F0
:101EE00088E00E948D0088E080938405E6EBF0E0B6
:101EF000E491E0938505E2EAF0E0E491F0E0EE0F92
:101F0000FF1FEA57FF4F8591949190938705809327
:101F100086050895CF93DF93CDB7DEB72E970FB622
:101F2000F894DEBF0FBECDBF789484B5826084BDC7
:101F300084B5816084BD85B5826085BD85B58160CD
:101F400085BD80916E00816080936E00109281004B
:101F50008091810082608093810080918100816006
:101F600080938100809180008160809380008091C7
:101F7000B10084608093B1008091B0008160809353
:101F8000B00080917A00846080937A0080917A001A
:101F9000826080937A0080917A00816080937A00D9
:101FA00080917A00806880937A001092C10060E08E
:101FB00088E00E94D90061E089E00E94D900E091A8
:101FC0008504F091860482E08083E0918104F091A1
:101FD00082041082E0918304F09184048FEC80836A
:101FE00010928D04E0918904F0918A0486E0808348
:101FF000E0918704F0918804808180618083E09182
:102000008704F0918804808188608083E091870450
:10201000F0918804808180688083E0918704F0914A
:10202000880480818F7D80831092930510929205A1
:10203000109291051092900510928F0510928E05C6
:102040008DE991E090939505809394059091840596
:10205000963108F047C02DEB30E030938F05209388
:102060008E052BE931E030939105209390052CE209
:1020700031E030939305209392052091680084E02D
:10208000983048F031E09E3008F430E081E001C043
:10209000880F3A95EAF7822B809368002DE630E0AE
:1020A000983050F02BE630E09E3030F02CE630E0F7
:1020B000963110F030E020E030938C0520938B05B2
:1020C000292F30E0983008F0D5C081E001C0880F9A
:1020D0009A95EAF780938D058091940590919505E6
:1020E0000197F1F78091920590919305892B49F121
:1020F000E0916804F091690485E0E837F80709F198
:10210000309739F0A389B4899C918589809589237A
:102110008C93809196058E7F80939605109267042C
:102120001092660488E795E09093690480936804B0
:10213000E0918B05F0918C05808190918D05892B24
:10214000808384E691E00E940E0C68E070E081E0FC
:1021500090E00E9462128C01FC011182108282E0E8
:1021600090E09383828362E070E00E946212F80143
:1021700095838483FC01118210821382128284E091
:1021800090E00E947E12F8019783868310936B047F
:1021900000936A0464E070E081E090E00E946212C3
:1021A00024E731E0FC013183208320E23CE03383EB
:1021B0002283BC01C8010E94600C64E070E081E0F1
:1021C00090E00E94621229E731E0FC013183208314
:1021D0002CE23CE033832283BC01C8010E94600CE6
:1021E00090E0492E90E0592E88E795E00E94930BED
:1021F000181619060CF0D4C018861F821A86198684
:102200001C861B8670E060E0CE0107960E94380CA9
:102210002F81388581113BC02115310519F0C90185
:102220000E941A1318861F821C861B861A8619861E
:102230000E94CC0B97FD33C08E33910581F18983C9
:102240001A820B851C850F5F1F4FB801CE010796C0
:102250000E94380C882361F32F8138858B859C85FB
:10226000BE016F5F7F4F820F931F0E9479141C87FE
:102270000B87DECF9E3040F42850310981E001C049
:10228000880F2A95EAF726CF2E503109F7CF1C8602
:102290001B8660E571E0C9010E947914C9CF1A82DA
:1022A00019821C821B821E821D8270E060E0CE01BA
:1022B00001960E94380C29813A8181112EC0211586
:1022C000310519F0C9010E941A131A8219821E825F
:1022D0001D821C821B820E94CC0B97FD26C08B3373
:1022E000910519F18D871E860D811E810F5F1F4F8D
:1022F000B801CE0101960E94380C882361F3298130
:102300003A818D819E81BE01635F7F4F820F931F53
:102310000E9479141E830D83DECF1E821D8260E52C
:1023200071E0C9010E947914D6CFCF80D884E091A2
:102330006A04F0916B04A680B780828093806480E9
:10234000758010E000E0F12CE12C08151905ACF4C3
:10235000F301819191913F01009761F0B6010E94D4
:102360007014892B39F4F801EE0FFF1FEA0DFB1DE5
:10237000E080F1800F5F1F4FE8CFE114F104E1F03E
:1023800089819A81F701099589819A81009711F0D5
:102390000E941A138F819885009711F00E941A13DA
:1023A0004114510409F420CF0E948001882309F4CC
:1023B0001BCF0E94000018CF85E891E00E940E0C10
:1023C000E3CF80E491E09093790580937805809144
:1023D0006804909169048857954071F4E0918B05E9
:1023E000F0918C05908180918D0580958923808363
:1023F000109269041092680408952F923F924F92B0
:102400005F926F927F928F929F92AF92BF92CF9284
:10241000DF92EF92FF920F931F93CF93DF93CDB78D
:10242000DEB7CA1BDB0B0FB6F894DEBF0FBECDBF05
:1024300009942A88398848885F846E847D848C84D6
:102440009B84AA84B984C884DF80EE80FD800C81DF
:102450001B81AA81B981CE0FD11D0FB6F894DEBFC2
:102460000FBECDBFED01089597FB072E16F4009423
:1024700007D077FD09D00E94481207FC05D03EF432
:10248000909581959F4F0895709561957F4F089520
:10249000AA1BBB1B51E107C0AA1FBB1FA617B7078A
:1024A00010F0A61BB70B881F991F5A95A9F78095A6
:1024B0009095BC01CD010895EE0FFF1F0590F4919A
:1024C000E02D09940F931F93CF93DF93869F800194
:1024D000879F100D969F100D1124C8010E947E1237
:1024E000EC01009729F0A80170E060E00E946914F7
:1024F000CE01DF91CF911F910F9108950F931F93FC
:10250000CF93DF938230910510F482E090E0E09168
:102510009905F0919A0530E020E0B0E0A0E0309716
:1025200099F42115310509F44AC0281B390B2430D0
:102530003105D8F58A819B816115710589F1FB010F
:1025400093838283FE0111C04081518102811381F6
:1025500048175907E0F04817590799F4109761F0A8
:1025600012960C93129713961C933296CF01DF911B
:10257000CF911F910F9108950093990510939A059B
:10258000F4CF2115310551F04217530738F0A90156
:10259000DB019A01BD01DF01F801C1CFEF01F9CFE5
:1025A00090939A0580939905CDCFFE01E20FF31F1A
:1025B000819391932250310939832883D7CF209179
:1025C000970530919805232B41F420910801309113
:1025D00009013093980520939705209106013091C9
:1025E00007012115310541F42DB73EB740910A018D
:1025F00050910B01241B350BE0919705F091980544
:10260000E217F307A0F42E1B3F0B2817390778F0C9
:10261000AC014E5F5F4F2417350748F04E0F5F1F28
:102620005093980540939705819391939FCFF0E045
:10263000E0E09CCFCF93DF930097E9F0FC01329765
:1026400013821282A0919905B0919A05ED0130E0B4
:1026500020E01097A1F420813181820F931F2091F7
:102660009705309198052817390709F061C0F09354
:102670009805E0939705DF91CF910895EA01CE1771
:10268000DF07E8F54A815B819E0141155105B1F7ED
:10269000E901FB83EA8349915991C40FD51FEC17D7
:1026A000FD0761F4808191810296840F951FE901F5
:1026B00099838883828193819B838A83F0E0E0E021
:1026C00012968D919C9113970097B9F52D913C919D
:1026D0001197CD010296820F931F2091970530919B
:1026E00098052817390739F6309751F510929A0551
:1026F00010929905B0939805A0939705BCCFD3830A
:10270000C28340815181840F951FC817D90761F496
:102710004E5F5F4F88819981480F591F51834083D5
:102720008A819B81938382832115310509F0B0CF83
:10273000F0939A05E09399059ECFFD01DC01C0CF8F
:1027400013821282D7CFB0E0A0E0E9EAF3E10C9463
:10275000FF118C01009751F4CB010E947E128C0175
:10276000C801CDB7DEB7E0E10C941B12FC01E60F07
:10277000F71F9C0122503109E217F30708F49DC0AE
:10278000D901CD91DC911197C617D70798F0C530C4
:10279000D10530F3CE0104978617970708F3C61BBF
:1027A000D70B2297C193D1936D937C93CF010E9455
:1027B0001A13D6CF5B01AC1ABD0A4C018C0E9D1EBC
:1027C000A0919905B0919A05512C412CF12CE12C46
:1027D000109731F580919705909198058815990586
:1027E00009F05CC04616570608F058C080910601F3
:1027F00090910701009741F48DB79EB740910A016F
:1028000050910B01841B950BE817F90708F055C090
:10281000F0939805E0939705F90171836083A0CF49
:102820008D919C91119712966C90129713967C90B3
:102830001397A815B90559F56C0142E0C40ED11CD7
:10284000CA14DB0420F1AC014A195B09DA011296C3
:10285000159780F06282738251834083D9016D9312
:102860007C93E114F10471F0D7011396FC93EE937D
:10287000129776CF22968C0F9D1FF901918380834A
:10288000F301EFCFF0939A05E093990569CF4816CD
:10289000590608F42C017D01D3019ACFCB010E9487
:1028A0007E127C01009749F0AE01B8010E946014CD
:1028B000C8010E941A13870153CF10E000E050CFE7
:1028C000FB01DC0102C001900D9241505040D8F74D
:1028D0000895DC0101C06D9341505040E0F7089528
:1028E000FB01DC018D91019080190110D9F3990B46
:1028F0000895FB01DC0101900D920020E1F708959D
:1029000010E0C2E6D0E004C0FE010E945C122196F5
:10291000C336D107C9F7F894FFCFFFFFFFFF0101CE
:1029200000009B05800000000000B6011601430175
:10293000030274015201660100000000080BEB0A5B
:10294000DB0A610A6A0A8A0AA60A000000004F0A26
:1029500016015F08600A00000000370B1601FE0B2D
:10296000360B930BAB0B1E0B0D0A00456174696EA1
:10297000673A2000446973706C61793A20004154D1
:1029800020636F6D6D616E64733A204F4B00666516
:10299000656400646973706C617954657874004D86
:1029A000617070696E67206E6F7420666F756E64FB
:0229B0002E00F7
:107E0000112484B714BE81FFF0D085E080938100F7
:107E100082E08093C00088E18093C10086E0809377
:107E2000C20080E18093C4008EE0C9D0259A86E02C
:107E300020E33CEF91E0309385002093840096BBD3
:107E4000B09BFECF1D9AA8958150A9F7CC24DD24C4
:107E500088248394B5E0AB2EA1E19A2EF3E0BF2EE7
:107E6000A2D0813461F49FD0082FAFD0023811F036
:107E7000013811F484E001C083E08DD089C08234E0
:107E800011F484E103C0853419F485E0A6D080C0E4
:107E9000853579F488D0E82EFF2485D0082F10E0AE
:107EA000102F00270E291F29000F111F8ED06801E7
:107EB0006FC0863521F484E090D080E0DECF843638
:107EC00009F040C070D06FD0082F6DD080E0C81688
:107ED00080E7D80618F4F601B7BEE895C0E0D1E017
:107EE00062D089930C17E1F7F0E0CF16F0E7DF06D8
:107EF00018F0F601B7BEE89568D007B600FCFDCFD4
:107F0000A601A0E0B1E02C9130E011968C91119780
:107F100090E0982F8827822B932B1296FA010C0160
:107F200087BEE89511244E5F5F4FF1E0A038BF0790
:107F300051F7F601A7BEE89507B600FCFDCF97BE46
:107F4000E89526C08437B1F42ED02DD0F82E2BD052
:107F50003CD0F601EF2C8F010F5F1F4F84911BD097
:107F6000EA94F801C1F70894C11CD11CFA94CF0C13
:107F7000D11C0EC0853739F428D08EE10CD085E9AC
:107F80000AD08FE07ACF813511F488E018D01DD067
:107F900080E101D065CF982F8091C00085FFFCCF94
:107FA0009093C60008958091C00087FFFCCF809118
:107FB000C00084FD01C0A8958091C6000895E0E648
:107FC000F0E098E1908380830895EDDF803219F02E
:107FD00088E0F5DFFFCF84E1DECF1F93182FE3DFCA
:107FE0001150E9F7F2DF1F91089580E0E8DFEE27F6
:047FF000FF270994CA
:027FFE00040479
:00000001FF
